S012000066696E616C2D6C696E6B2E737265632D
S11300004BC0000079C0000081C00000A0C0000007
S1130010B3C000005EC000005CC000005AC0000015
S113002058C0000056C0000054C0000052C0000078
S113003050C000004EC000004CC000004AC0000088
S113004048C0000046C0000044C0000042C0000098
S113005040C000003EC000003CC000003AC00000A8
S113006038C0000036C0000034C0000032C00000B8
S113007030C00000B4C000002CC000002AC0000042
S113008028C0000026C0000024C0000022C00000D8
S113009020C000001EC0000011241FBECFEFD0E21C
S11300A0DEBFCDBF11E0A0E0B1E0E8E7F7E000E09B
S11300B00BBF02C007900D92AC30B107D9F721E015
S11300C0ACE0B1E001C01D92A632B207E1F7B5D1B0
S11300D051C36AC0E9E6F0E0808182608083808158
S11300E08C6080838081806280838081806880834B
S11300F08DB38F608DBB08951F920F920FB60F9230
S113010011240F900FBE0F901F9018951F920F92FD
S11301100FB60F9211240BB60F928F939F93EF9308
S1130120FF938FEF93E09093150180931401EAE716
S1130130F0E0808180648083FF91EF919F918F91A3
S11301400F900BBE0F900FBE0F901F9018951F922B
S11301500F920FB60F9211248F939F9380910A01EF
S113016090910B01892B09F415B89F918F910F90F1
S11301700FBE0F901F9018951F920F920FB60F92FB
S113018011248F939F93109213011092120181E016
S113019090E090930D0180930C019F918F910F90AB
S11301A00FBE0F901F9018951F920F920FB60F92CB
S11301B011240F900FBE0F901F90189583E884BDF3
S11301C082E085BD80EA87BD089581E480937C0048
S11301D088E880937A0082E080937E0008951F92DD
S11301E00F920FB60F9211240BB60F922F933F93D9
S11301F08F939F93EF93FF93809178009091790070
S113020090931E0180931D012091140130911501DA
S113021080911D0190911E018217930740F48091F3
S11302201D0190911E019093150180931401499B27
S113023006C0EAE7F0E080818064808309C0809191
S11302400E0190910F01019690930F0180930E017E
S1130250FF91EF919F918F913F912F910F900BBE42
S11302600F900FBE0F901F901895CF93DF93EC0162
S113027084E090E052D199838883FC011382128236
S1130280DF91CF910895DB01ED91FC91309761F0FE
S1130290DA018D919C911197938382838D919C9126
S11302A0FB01918380830895DA012D913C9111978C
S11302B0FC01318320838D919C91DB018D939C9370
S11302C00895FC0180819181DA018D939C93A08132
S11302D0B181109739F012968D919C911397918367
S11302E080830895FB01118210820895AC01E1E836
S11302F0F0E081E0808390819860908388EE93E0C1
S11303009093890080938800109285001092840055
S113031082E086BB20E030E005C0B19BFECF86BB07
S11303202F5F3F4F241735071CF4B19BF6CFF7CF4F
S113033008951EC0E0911001F0911101EA5FFE4F93
S1130340808182B984E190E0D1DF809110019091A5
S11303501101019690931101809310018091100175
S113036090911101049724F0109211011092100140
S113037080910C0190910D01892BE1F20895EF9287
S1130380FF920F931F93CF93DF93181619060CF067
S11303904DC08C01C0E0D0E00F2EF4E1EF2EF12C23
S11303A0F02D80911001909111010196909311010B
S11303B0809310018091100190911101049724F011
S11303C01092110110921001E0911001F0911101AD
S11303D0EA5FFE4F808182B9C70188DFCE30D10544
S11303E01CF481E0E81AF108C8018C1B9D0B0E97E0
S11303F01CF48FEFE81AF80A2091120130911301CE
S11304002F5F3F4F3093130120931201809112010B
S113041090911301893C910524F0109213011092DC
S113042012012196C017D10709F0BBCFDF91CF91FC
S11304301F910F91FF90EF9008958FE884B98FEF8B
S113044087B980EF8AB910BA109217011092160179
S11304501092200110921F01F894B0DEB6DE3ADE4D
S1130460789467DF84E085B910921B0110921A0119
S11304701092190110921801C4E001E010E080917B
S11304800E0190910F0118161906CCF710920B016A
S113049010920A018FE191E0E8DEE0911F01F091F2
S11304A02001C0834FE151E068E171E08AE191E00D
S11304B0EADE80911F0190912001C4D046E151E011
S11304C068E171E08AE191E0FCDEE0911601F091CF
S11304D01701808188B988EC90E051DF10930B01FB
S11304E000930A01C5B98091160190911701AAD011
S11304F080910E0190910F01019790930F018093C9
S11305000E0180910E0190910F0199230CF0B7CF49
S113051010920F0110920E01B2CFCF93DF9382306D
S1130520910510F482E090E0E0912401F09125011E
S113053020E030E0C0E0D0E0309711F140815181FB
S113054048175907C0F04817590761F4828193810D
S1130550209719F09B838A832BC090932501809365
S1130560240126C02115310519F04217530718F448
S11305709A01BE01DF01EF010280F381E02DDCCF9F
S11305802115310509F1281B390B2430310590F46C
S113059012968D919C9113976115710521F0FB01C1
S11305A09383828304C09093250180932401FD01E9
S11305B0329644C0FD01E20FF31F819391932250C0
S11305C031092D933C933AC02091220130912301AB
S11305D0232B41F420910201309103013093230134
S11305E02093220120910001309101012115310550
S11305F041F42DB73EB74091040150910501241BED
S1130600350BE0912201F0912301E217F307A0F4E6
S11306102E1B3F0B2817390778F0AC014E5F5F4F54
S11306202417350748F04E0F5F1F50932301409362
S113063022018193919302C0E0E0F0E0CF01DF91C9
S1130640CF9108950F931F93CF93DF93009709F4ED
S11306508CC0FC0132971382128200912401109104
S113066025010115110581F420813181820F931F29
S113067020912201309123012817390779F5F0934D
S11306802301E093220171C0D80140E050E0AE178D
S1130690BF0750F412962D913C911397AD0121158B
S11306A0310509F1D901F3CF9D01DA0133832283A6
S11306B060817181860F971F8217930769F4EC019B
S11306C028813981260F371F2E5F3F4F31832083C6
S11306D08A819B8193838283452B29F4F09325019E
S11306E0E093240142C01396FC93EE931297ED011C
S11306F0499159919E01240F351FE217F30771F4B4
S113070080819181840F951F029611969C938E93FC
S11307108281938113969C938E931297E0E0F0E08C
S1130720D80112968D919C911397009719F0F801B6
S11307308C01F6CF8D919C9198012E5F3F4F820FD3
S1130740931F20912201309123012817390769F45E
S1130750309729F4109225011092240102C01382CB
S113076012821093230100932201DF91CF911F91F4
S10B07700F910895F894FFCFE6
S10F0778000026012000362E2D35010063
S9030000FC
