S00D000046696E616C2E737265632D
S11300004BC0000079C0000081C00000A0C0000007
S1130010AFC000005EC000005CC000005AC0000019
S113002058C0000056C0000054C0000052C0000078
S113003050C000004EC000004CC000009DC2000033
S113004048C0000046C0000044C0000042C0000098
S113005040C000003EC000003CC000003AC00000A8
S113006038C0000036C0000034C0000032C00000B8
S113007030C00000D5C000002CC000002AC0000021
S113008028C0000026C0000024C0000022C00000D8
S113009020C000001EC0000011241FBECFEFD0E21C
S11300A0DEBFCDBF11E0A0E0B1E0ECEEF7E000E090
S11300B00BBF02C007900D92AC30B107D9F721E015
S11300C0ACE0B1E001C01D92A332B207E1F70BD25C
S11300D08BC35FC0E9E6F0E0808182608083808129
S11300E08C6080838081806280838081806880834B
S11300F08DB38F608DBB08951F920F920FB60F9230
S113010011240F900FBE0F901F9018951F920F92FD
S11301100FB60F9211240BB60F928F939F93EF9308
S1130120FF938FEF93E09093110180931001EAE71E
S1130130F0E0808180648083FF91EF919F918F91A3
S11301400F900BBE0F900FBE0F901F9018951F922B
S11301500F920FB60F9211248F9380910A01813070
S113016009F415B88F910F900FBE0F901F9018953A
S11301701F920F920FB60F9211248F9310920F01BA
S113018081E080930C018F910F900FBE0F901F9010
S113019018951F920F920FB60F9211240F900FBE55
S11301A00F901F90189583E884BD82E085BD80EA96
S11301B087BD089581E480937C0088E880937A0069
S11301C082E080937E000895CF93DF93EC0184E076
S11301D090E0E3D199838883FC0113821282DF913A
S11301E0CF910895DB01ED91FC91309761F0DA0134
S11301F08D919C911197938382838D919C91FB01A6
S1130200918380830895DA012D913C911197FC012B
S1130210318320838D919C91DB018D939C93089570
S11302201F920F920FB60F9211240BB60F922F93B9
S11302303F934F935F936F937F938F939F93AF936A
S1130240BF93EF93FF9380917800909179009093FE
S11302501B0180931A0120911001309111018091AA
S11302601A0190911B018217930740F480911A019F
S113027090911B019093110180931001499B06C03A
S1130280EAE7F0E08081806480835BC08CE191E0E8
S11302909BDF80911001909111018A3F910538F400
S11302A0E0911C01F0911D0184E080833EC08091A7
S11302B01001909111018732924070F080911001E9
S11302C0909111018032934038F4E0911C01F09137
S11302D01D0182E0808329C0809110019091110159
S11302E0883A934038F0E0911C01F0911D0181E0BF
S11302F080831BC08091100190911101823A934038
S113030070F480911001909111018538934038F078
S1130310E0911C01F0911D0183E0808306C0E0910F
S11303201C01F0911D0185E080834CE151E065E101
S113033071E087E191E056DF80910D018F5F80933A
S11303400D01FF91EF91BF91AF919F918F917F919B
S11303506F915F914F913F912F910F900BBE0F9032
S11303600FBE0F901F901895FC0180819181DA01D6
S11303708D939C93A081B181109741F012968D9139
S11303809C91139791838083892B19F4FB0111822B
S113039010820895E1E8F0E021E0208320812860C4
S11303A0208328EE33E03093890020938800109254
S11303B085001092840022E026BB20E030E042E079
S11303C005C0B19BFECF46BB2F5F3F4F28173907AF
S11303D01CF4B19BF6CFF7CF08950F931F93CF93DF
S11303E0DF93C4E1D0E00DE010E021C080910E0164
S11303F08F5F80930E0180910E01843010F0109273
S11304000E01E0910E01F0E0EA5FFE4F808182B9B7
S1130410CE01C0DF80910E018E3020F0CD30D105A9
S113042034F403C0C02FD12F02C0C02FD12F80912C
S11304300C018823D9F2DF91CF911F910F91089578
S1130440EF92FF920F931F93CF93DF9322E3289FA2
S11304508001299F100D11241016110694F5C0E097
S1130460D0E00F2EF4E1EF2EF12CF02D80910E014F
S11304708F5F80930E0180910E01843010F01092F2
S11304800E01E0910E01F0E0EA5FFE4F808182B937
S1130490C70180DFCE30D1051CF481E0E81AF108F1
S11304A0C8018C1B9D0B0E971CF48FEFE81AF80AF9
S11304B080910F018F5F80930F012196C017D107A0
S11304C0A9F6DF91CF911F910F91FF90EF900895BE
S11304D0E1EBF0E0808185608083E0E7F0E08081FB
S11304E08160808308958FE884B98FEF87B980EFA6
S11304F08AB910BA109214011092130110921D01BE
S113050010921C01F8944FDE55DEE4DDE1DF7894AF
S113051064DF84E085B910921801109217011092DB
S1130520160110921501D1E0C4E080910D018823D9
S1130530E1F343E151E065E171E087E191E014DF2B
S1130540D0930A0180910A0188B984E090E078DFB1
S113055010920A0180910A0188B9C5B984E690E035
S113056019DF8091130190911401AFD080910D0196
S1130570815080930D01D9CF1F920F920FB60F9225
S113058011248F93809112018F5F809312018F91B8
S11305900F900FBE0F901F901895CF93DF9382306A
S11305A0910510F482E090E0E0912101F0912201A4
S11305B020E030E0A0E0B0E0309739F14081518193
S11305C048175907B8F04817590771F48281938185
S11305D0109729F013969C938E9312972CC09093A6
S11305E022018093210127C02115310531F04217E2
S11305F0530718F0A901DB0101C0EF019A01BD0105
S1130600DF010280F381E02DD7CF21153105F9F008
S1130610281B390B2430310580F48A819B816115B4
S1130620710521F0FB019383828304C0909322011E
S113063080932101FE01329644C0FE01E20FF31FB4
S11306408193919322503109398328833AC02091B0
S11306501F0130912001232B41F42091020130919C
S113066003013093200120931F0120910001309158
S113067001012115310541F42DB73EB74091040124
S113068050910501241B350BE0911F01F0912001CD
S1130690E217F307A0F42E1B3F0B2817390778F055
S11306A0AC014E5F5F4F2417350748F04E0F5F1FB4
S11306B05093200140931F018193919302C0E0E085
S11306C0F0E0CF01DF91CF910895CF93DF930097AE
S11306D009F487C0FC01329713821282C091210170
S11306E0D0912201209781F420813181280F391F74
S11306F080911F01909120018217930779F5F0935F
S11307002001E0931F016DC0DE0120E030E0AE1750
S1130710BF0750F412964D915C9113979D014115BA
S1130720510509F1DA01F3CFB383A28340815181EA
S1130730840F951F8A179B0771F48D919C911197D3
S1130740840F951F02969183808312968D919C91BC
S11307501397938382832115310529F4F0932201A1
S1130760E09321013EC0D9011396FC93EE931297B6
S11307704D915D91A40FB51FEA17FB0779F48081B1
S11307809181840F951F0296D90111969C938E93A3
S11307908281938113969C938E931297E0E0F0E00C
S11307A08A819B81009719F0FE01EC01F9CFCE01FB
S11307B0029628813981820F931F20911F01309165
S11307C020012817390769F4309729F4109222017F
S11307D01092210102C013821282D0932001C0938F
S10F07E01F01DF91CF910895F894FFCF22
S10F07EC000023012000362E2D350100F2
S9030000FC
