S00D000046696E616C2E737265632D
S11300004BC0000079C0000081C00000A0C0000007
S1130010B3C000005EC000005CC000005AC0000015
S113002058C0000056C0000054C0000052C0000078
S113003050C000004EC000004CC000004AC0000088
S113004048C0000046C0000044C0000042C0000098
S113005040C000003EC000003CC000003AC00000A8
S113006038C0000036C0000034C0000032C00000B8
S113007030C00000B4C000002CC000002AC0000042
S113008028C0000026C0000024C0000022C00000D8
S113009020C000001EC0000011241FBECFEFD0E21C
S11300A0DEBFCDBF11E0A0E0B1E0ECE6F7E000E098
S11300B00BBF02C007900D92AC30B107D9F721E015
S11300C0ACE0B1E001C01D92A632B207E1F7B5D1B0
S11300D04BC36AC0E9E6F0E080818260808380815E
S11300E08C6080838081806280838081806880834B
S11300F08DB38F608DBB08951F920F920FB60F9230
S113010011240F900FBE0F901F9018951F920F92FD
S11301100FB60F9211240BB60F928F939F93EF9308
S1130120FF938FEF93E09093150180931401EAE716
S1130130F0E0808180648083FF91EF919F918F91A3
S11301400F900BBE0F900FBE0F901F9018951F922B
S11301500F920FB60F9211248F939F9380910A01EF
S113016090910B01892B09F415B89F918F910F90F1
S11301700FBE0F901F9018951F920F920FB60F92FB
S113018011248F939F93109213011092120181E016
S113019090E090930D0180930C019F918F910F90AB
S11301A00FBE0F901F9018951F920F920FB60F92CB
S11301B011240F900FBE0F901F90189583E884BDF3
S11301C082E085BD80EA87BD089581E480937C0048
S11301D088E880937A0082E080937E0008951F92DD
S11301E00F920FB60F9211240BB60F922F933F93D9
S11301F08F939F93EF93FF93809178009091790070
S113020090931C0180931B012091140130911501DE
S113021080911B0190911C018217930740F48091F7
S11302201B0190911C019093150180931401499B2B
S113023006C0EAE7F0E080818064808309C0809191
S11302400E0190910F01019690930F0180930E017E
S1130250FF91EF919F918F913F912F910F900BBE42
S11302600F900FBE0F901F901895CF93DF93EC0162
S113027084E090E052D199838883FC011382128236
S1130280DF91CF910895DB01ED91FC91309761F0FE
S1130290DA018D919C911197938382838D919C9126
S11302A0FB01918380830895DA012D913C9111978C
S11302B0FC01318320838D919C91DB018D939C9370
S11302C00895FC0180819181DA018D939C93A08132
S11302D0B181109741F012968D919C91139791835F
S11302E08083892B19F4FB01118210820895E1E8BF
S11302F0F0E021E0208320812860208328EE33E091
S11303003093890020938800109285001092840015
S113031022E026BB20E030E042E005C0B19BFECFE6
S113032046BB2F5F3F4F281739071CF4B19BF6CF0C
S1130330F7CF08951EC0E0911001F0911101EA5F1A
S1130340FE4F808182B984E190E0D1DF8091100179
S11303509091110101969093110180931001809165
S1130360100190911101049724F010921101109240
S1130370100180910C0190910D01892BE1F20895F7
S1130380EF92FF920F931F93CF93DF938C01181674
S113039019060CF04BC0C0E0D0E00F2EF4E1EF2EB4
S11303A0F12CF02D80911001909111010196909300
S11303B01101809310018091100190911101049713
S11303C024F01092110110921001E0911001F091AB
S11303D01101EA5FFE4F808182B9C70188DFCE3008
S11303E0D1051CF481E0E81AF108C8018C1B9D0BAF
S11303F00E971CF48FEFE81AF80A8091120190917D
S113040013010196909313018093120180911201BC
S113041090911301893C910524F0109213011092DC
S113042012012196C017D10709F0BCCFDF91CF91FB
S11304301F910F91FF90EF9008958FE884B98FEF8B
S113044087B980EF8AB910BAF894B8DEBEDE42DE0E
S1130450789470DF84E085B9109219011092180124
S1130460109217011092160110921E0110921D0194
S1130470109221011092200114E0C1E0D0E080919B
S11304800E0190910F0118161906CCF710920B016A
S113049010920A018DE191E0E8DEE0911D01F091F6
S11304A01E0110834DE151E066E171E088E191E0C5
S11304B0EADE80911D0190911E01C7D040E251E017
S11304C066E171E088E191E0FCDEE0912001F091C9
S11304D02101808188B988EC90E052DFD0930B0130
S11304E0C0930A0115B98091200190912101ADD0EA
S11304F080910E0190910F01019790930F018093C9
S11305000E0180910E0190910F0199230CF0B7CF49
S113051010920F0110920E01B2CFCF93DF9382306D
S1130520910510F482E090E0E0912401F09125011E
S113053020E030E0A0E0B0E0309739F14081518113
S113054048175907B8F04817590771F48281938105
S1130550109729F013969C938E9312972CC0909326
S113056025018093240127C02115310531F042175C
S1130570530718F0A901DB0101C0EF019A01BD0185
S1130580DF010280F381E02DD7CF21153105F9F089
S1130590281B390B2430310580F48A819B81611535
S11305A0710521F0FB019383828304C0909325019C
S11305B080932401FE01329644C0FE01E20FF31F32
S11305C08193919322503109398328833AC0209131
S11305D0220130912301232B41F420910201309117
S11305E003013093230120932201209100013091D3
S11305F001012115310541F42DB73EB740910401A5
S113060050910501241B350BE0912201F091230147
S1130610E217F307A0F42E1B3F0B2817390778F0D5
S1130620AC014E5F5F4F2417350748F04E0F5F1F34
S113063050932301409322018193919302C0E0E0FF
S1130640F0E0CF01DF91CF910895CF93DF9300972E
S113065009F487C0FC01329713821282C0912401ED
S1130660D0912501209781F420813181280F391FF1
S113067080912201909123018217930779F5F093D9
S11306802301E09322016DC0DE0120E030E0AE17CB
S1130690BF0750F412964D915C9113979D0141153B
S11306A0510509F1DA01F3CFB383A283408151816B
S11306B0840F951F8A179B0771F48D919C91119754
S11306C0840F951F02969183808312968D919C913D
S11306D01397938382832115310529F4F09325011F
S11306E0E09324013EC0D9011396FC93EE93129734
S11306F04D915D91A40FB51FEA17FB0779F4808132
S11307009181840F951F0296D90111969C938E9323
S11307108281938113969C938E931297E0E0F0E08C
S11307208A819B81009719F0FE01EC01F9CFCE017B
S1130730029628813981820F931F209122013091E2
S113074023012817390769F4309729F410922501F9
S11307501092240102C013821282D0932301C09309
S10F07602201DF91CF910895F894FFCF9F
S10F076C000026012000362E2D3501006F
S9030000FC
